{
  "contractName": "LandTitle",
  "abi": [
    {
      "inputs": [
        {
          "internalType": "address",
          "name": "_registryAddress",
          "type": "address"
        }
      ],
      "stateMutability": "nonpayable",
      "type": "constructor"
    },
    {
      "anonymous": false,
      "inputs": [
        {
          "indexed": false,
          "internalType": "uint256",
          "name": "nonce",
          "type": "uint256"
        }
      ],
      "name": "LogRegistered",
      "type": "event"
    },
    {
      "anonymous": false,
      "inputs": [
        {
          "indexed": false,
          "internalType": "uint256",
          "name": "nonce",
          "type": "uint256"
        }
      ],
      "name": "LogToBeRegistered",
      "type": "event"
    },
    {
      "anonymous": false,
      "inputs": [
        {
          "indexed": false,
          "internalType": "uint256",
          "name": "nonce",
          "type": "uint256"
        }
      ],
      "name": "LogToBeTransfered",
      "type": "event"
    },
    {
      "anonymous": false,
      "inputs": [
        {
          "indexed": false,
          "internalType": "uint256",
          "name": "nonce",
          "type": "uint256"
        }
      ],
      "name": "LogTransfered",
      "type": "event"
    },
    {
      "anonymous": false,
      "inputs": [
        {
          "indexed": true,
          "internalType": "address",
          "name": "previousOwner",
          "type": "address"
        },
        {
          "indexed": true,
          "internalType": "address",
          "name": "newOwner",
          "type": "address"
        }
      ],
      "name": "OwnershipTransferred",
      "type": "event"
    },
    {
      "inputs": [],
      "name": "nonce",
      "outputs": [
        {
          "internalType": "uint256",
          "name": "",
          "type": "uint256"
        }
      ],
      "stateMutability": "view",
      "type": "function",
      "constant": true
    },
    {
      "inputs": [],
      "name": "owner",
      "outputs": [
        {
          "internalType": "address",
          "name": "",
          "type": "address"
        }
      ],
      "stateMutability": "view",
      "type": "function",
      "constant": true
    },
    {
      "inputs": [],
      "name": "registryAddress",
      "outputs": [
        {
          "internalType": "address payable",
          "name": "",
          "type": "address"
        }
      ],
      "stateMutability": "view",
      "type": "function",
      "constant": true
    },
    {
      "inputs": [],
      "name": "registryFee",
      "outputs": [
        {
          "internalType": "uint256",
          "name": "",
          "type": "uint256"
        }
      ],
      "stateMutability": "view",
      "type": "function",
      "constant": true
    },
    {
      "inputs": [],
      "name": "renounceOwnership",
      "outputs": [],
      "stateMutability": "nonpayable",
      "type": "function"
    },
    {
      "inputs": [],
      "name": "titleOwner",
      "outputs": [
        {
          "internalType": "address payable",
          "name": "",
          "type": "address"
        }
      ],
      "stateMutability": "view",
      "type": "function",
      "constant": true
    },
    {
      "inputs": [],
      "name": "transferFee",
      "outputs": [
        {
          "internalType": "uint256",
          "name": "",
          "type": "uint256"
        }
      ],
      "stateMutability": "view",
      "type": "function",
      "constant": true
    },
    {
      "inputs": [
        {
          "internalType": "address",
          "name": "newOwner",
          "type": "address"
        }
      ],
      "name": "transferOwnership",
      "outputs": [],
      "stateMutability": "nonpayable",
      "type": "function"
    },
    {
      "inputs": [
        {
          "internalType": "string",
          "name": "_ID",
          "type": "string"
        },
        {
          "internalType": "uint256",
          "name": "_size",
          "type": "uint256"
        },
        {
          "internalType": "string",
          "name": "_location",
          "type": "string"
        },
        {
          "internalType": "string",
          "name": "_image",
          "type": "string"
        }
      ],
      "name": "addTitle",
      "outputs": [],
      "stateMutability": "nonpayable",
      "type": "function"
    },
    {
      "inputs": [
        {
          "internalType": "uint256",
          "name": "_nonce",
          "type": "uint256"
        }
      ],
      "name": "fetchTitle",
      "outputs": [
        {
          "internalType": "string",
          "name": "ID",
          "type": "string"
        },
        {
          "internalType": "address",
          "name": "currOwner",
          "type": "address"
        },
        {
          "internalType": "uint256",
          "name": "titleNonce",
          "type": "uint256"
        },
        {
          "internalType": "uint256",
          "name": "size",
          "type": "uint256"
        },
        {
          "internalType": "string",
          "name": "location",
          "type": "string"
        },
        {
          "internalType": "string",
          "name": "image",
          "type": "string"
        },
        {
          "internalType": "enum LandTitle.State",
          "name": "state",
          "type": "uint8"
        }
      ],
      "stateMutability": "view",
      "type": "function",
      "constant": true
    },
    {
      "inputs": [
        {
          "internalType": "address",
          "name": "from",
          "type": "address"
        },
        {
          "internalType": "string",
          "name": "_ID",
          "type": "string"
        }
      ],
      "name": "hashMessage",
      "outputs": [
        {
          "internalType": "bytes32",
          "name": "",
          "type": "bytes32"
        }
      ],
      "stateMutability": "view",
      "type": "function",
      "constant": true
    },
    {
      "inputs": [
        {
          "internalType": "address",
          "name": "userFrom",
          "type": "address"
        },
        {
          "internalType": "bytes",
          "name": "_signature",
          "type": "bytes"
        },
        {
          "internalType": "string",
          "name": "_ID",
          "type": "string"
        }
      ],
      "name": "processSignature",
      "outputs": [
        {
          "internalType": "address",
          "name": "",
          "type": "address"
        }
      ],
      "stateMutability": "view",
      "type": "function",
      "constant": true
    },
    {
      "inputs": [
        {
          "internalType": "uint256",
          "name": "_nonce",
          "type": "uint256"
        },
        {
          "internalType": "bytes",
          "name": "_sig",
          "type": "bytes"
        },
        {
          "internalType": "string",
          "name": "_ID",
          "type": "string"
        }
      ],
      "name": "registerTitle",
      "outputs": [],
      "stateMutability": "payable",
      "type": "function",
      "payable": true
    },
    {
      "inputs": [],
      "name": "kill",
      "outputs": [],
      "stateMutability": "nonpayable",
      "type": "function"
    }
  ],
  "bytecode": "0x60806040526000600760006101000a81548160ff0219169083151502179055503480156200002c57600080fd5b50604051620023e9380380620023e9833981810160405281019062000052919062000257565b62000072620000666200012160201b60201c565b6200012960201b60201c565b6001808190555033600360006101000a81548173ffffffffffffffffffffffffffffffffffffffff021916908373ffffffffffffffffffffffffffffffffffffffff16021790555080600260006101000a81548173ffffffffffffffffffffffffffffffffffffffff021916908373ffffffffffffffffffffffffffffffffffffffff160217905550670de0b6b3a7640000600481905550600160058190555060006006819055505062000289565b600033905090565b60008060009054906101000a900473ffffffffffffffffffffffffffffffffffffffff169050816000806101000a81548173ffffffffffffffffffffffffffffffffffffffff021916908373ffffffffffffffffffffffffffffffffffffffff1602179055508173ffffffffffffffffffffffffffffffffffffffff168173ffffffffffffffffffffffffffffffffffffffff167f8be0079c531659141344cd1fd0a4f28419497f9722a3daafe3b4186f6b6457e060405160405180910390a35050565b600080fd5b600073ffffffffffffffffffffffffffffffffffffffff82169050919050565b60006200021f82620001f2565b9050919050565b620002318162000212565b81146200023d57600080fd5b50565b600081519050620002518162000226565b92915050565b60006020828403121562000270576200026f620001ed565b5b6000620002808482850162000240565b91505092915050565b61215080620002996000396000f3fe6080604052600436106100dd5760003560e01c8063a05f10871161007f578063affed0e011610059578063affed0e0146102a2578063dd1e2043146102cd578063ed9aab51146102e9578063f2fde38b14610314576100dd565b8063a05f108714610209578063a99f848d14610234578063acb2ad6f14610277576100dd565b806341c0e1b5116100bb57806341c0e1b5146101875780635d426d091461019e578063715018a6146101c75780638da5cb5b146101de576100dd565b80630c75def5146100e25780631f750e2e1461011f57806333e7cf2d1461014a575b600080fd5b3480156100ee57600080fd5b5061010960048036038101906101049190611408565b61033d565b604051610116919061147d565b60405180910390f35b34801561012b57600080fd5b50610134610399565b60405161014191906114b1565b60405180910390f35b34801561015657600080fd5b50610171600480360381019061016c919061156d565b61039f565b60405161017e9190611607565b60405180910390f35b34801561019357600080fd5b5061019c610445565b005b3480156101aa57600080fd5b506101c560048036038101906101c0919061164e565b6104da565b005b3480156101d357600080fd5b506101dc610724565b005b3480156101ea57600080fd5b506101f36107ac565b6040516102009190611607565b60405180910390f35b34801561021557600080fd5b5061021e6107d5565b60405161022b919061172a565b60405180910390f35b34801561024057600080fd5b5061025b60048036038101906102569190611745565b6107fb565b60405161026e9796959493929190611871565b60405180910390f35b34801561028357600080fd5b5061028c610a70565b60405161029991906114b1565b60405180910390f35b3480156102ae57600080fd5b506102b7610a76565b6040516102c491906114b1565b60405180910390f35b6102e760048036038101906102e291906118f5565b610a7c565b005b3480156102f557600080fd5b506102fe610d6b565b60405161030b919061172a565b60405180910390f35b34801561032057600080fd5b5061033b60048036038101906103369190611980565b610d91565b005b60008083600260009054906101000a900473ffffffffffffffffffffffffffffffffffffffff168460405160200161037793929190611a5a565b6040516020818303038152906040528051906020012090508091505092915050565b60045481565b60006103a9610e89565b73ffffffffffffffffffffffffffffffffffffffff166103c76107ac565b73ffffffffffffffffffffffffffffffffffffffff161461041d576040517f08c379a000000000000000000000000000000000000000000000000000000000815260040161041490611adf565b60405180910390fd5b6000610429858461033d565b905060006104378286610e91565b905080925050509392505050565b61044d610e89565b73ffffffffffffffffffffffffffffffffffffffff1661046b6107ac565b73ffffffffffffffffffffffffffffffffffffffff16146104c1576040517f08c379a00000000000000000000000000000000000000000000000000000000081526004016104b890611adf565b60405180910390fd5b3373ffffffffffffffffffffffffffffffffffffffff16ff5b6104e2610e89565b73ffffffffffffffffffffffffffffffffffffffff166105006107ac565b73ffffffffffffffffffffffffffffffffffffffff1614610556576040517f08c379a000000000000000000000000000000000000000000000000000000000815260040161054d90611adf565b60405180910390fd5b6040518060e00160405280858152602001600360009054906101000a900473ffffffffffffffffffffffffffffffffffffffff1673ffffffffffffffffffffffffffffffffffffffff168152602001848152602001838152602001828152602001600060038111156105cb576105ca6117fa565b5b815260200160065481525060096000600654815260200190815260200160002060008201518160000190805190602001906106079291906111ad565b5060208201518160010160006101000a81548173ffffffffffffffffffffffffffffffffffffffff021916908373ffffffffffffffffffffffffffffffffffffffff1602179055506040820151816002015560608201518160030190805190602001906106759291906111ad565b5060808201518160040190805190602001906106929291906111ad565b5060a08201518160050160006101000a81548160ff021916908360038111156106be576106bd6117fa565b5b021790555060c082015181600601559050507f79b4790426b7fe5ee1ed093303bfb105c37012c6ef8ca0a969473b5bb95dbcb460065460405161070191906114b1565b60405180910390a160016006546107189190611b2e565b60068190555050505050565b61072c610e89565b73ffffffffffffffffffffffffffffffffffffffff1661074a6107ac565b73ffffffffffffffffffffffffffffffffffffffff16146107a0576040517f08c379a000000000000000000000000000000000000000000000000000000000815260040161079790611adf565b60405180910390fd5b6107aa6000610f08565b565b60008060009054906101000a900473ffffffffffffffffffffffffffffffffffffffff16905090565b600360009054906101000a900473ffffffffffffffffffffffffffffffffffffffff1681565b60606000806000606080600060096000898152602001908152602001600020600001805461082890611bb3565b80601f016020809104026020016040519081016040528092919081815260200182805461085490611bb3565b80156108a15780601f10610876576101008083540402835291602001916108a1565b820191906000526020600020905b81548152906001019060200180831161088457829003601f168201915b505050505096506009600089815260200190815260200160002060010160009054906101000a900473ffffffffffffffffffffffffffffffffffffffff1695506009600089815260200190815260200160002060020154935060096000898152602001908152602001600020600301805461091b90611bb3565b80601f016020809104026020016040519081016040528092919081815260200182805461094790611bb3565b80156109945780601f1061096957610100808354040283529160200191610994565b820191906000526020600020905b81548152906001019060200180831161097757829003601f168201915b505050505092506009600089815260200190815260200160002060040180546109bc90611bb3565b80601f01602080910402602001604051908101604052809291908181526020018280546109e890611bb3565b8015610a355780601f10610a0a57610100808354040283529160200191610a35565b820191906000526020600020905b815481529060010190602001808311610a1857829003601f168201915b505050505091506009600089815260200190815260200160002060050160009054906101000a900460ff169050879450919395979092949650565b60055481565b60065481565b60045480341015610ac2576040517f08c379a0000000000000000000000000000000000000000000000000000000008152600401610ab990611c57565b60405180910390fd5b610aca610e89565b73ffffffffffffffffffffffffffffffffffffffff16610ae86107ac565b73ffffffffffffffffffffffffffffffffffffffff1614610b3e576040517f08c379a0000000000000000000000000000000000000000000000000000000008152600401610b3590611adf565b60405180910390fd5b60026001541415610b84576040517f08c379a0000000000000000000000000000000000000000000000000000000008152600401610b7b90611cc3565b60405180910390fd5b60026001819055506008600085815260200190815260200160002060009054906101000a900460ff1615610bed576040517f08c379a0000000000000000000000000000000000000000000000000000000008152600401610be490611d55565b60405180910390fd5b60016008600086815260200190815260200160002060006101000a81548160ff0219169083151502179055506000600260009054906101000a900473ffffffffffffffffffffffffffffffffffffffff1673ffffffffffffffffffffffffffffffffffffffff1634604051610c6190611da6565b60006040518083038185875af1925050503d8060008114610c9e576040519150601f19603f3d011682016040523d82523d6000602084013e610ca3565b606091505b5050905080610ce7576040517f08c379a0000000000000000000000000000000000000000000000000000000008152600401610cde90611e07565b60405180910390fd5b60016009600087815260200190815260200160002060050160006101000a81548160ff02191690836003811115610d2157610d206117fa565b5b02179055507f721a43c7a501b105e947fc8b31ccd7692b9d8519d6712509ddfe3fefc79dd30385604051610d5591906114b1565b60405180910390a1506001808190555050505050565b600260009054906101000a900473ffffffffffffffffffffffffffffffffffffffff1681565b610d99610e89565b73ffffffffffffffffffffffffffffffffffffffff16610db76107ac565b73ffffffffffffffffffffffffffffffffffffffff1614610e0d576040517f08c379a0000000000000000000000000000000000000000000000000000000008152600401610e0490611adf565b60405180910390fd5b600073ffffffffffffffffffffffffffffffffffffffff168173ffffffffffffffffffffffffffffffffffffffff161415610e7d576040517f08c379a0000000000000000000000000000000000000000000000000000000008152600401610e7490611e99565b60405180910390fd5b610e8681610f08565b50565b600033905090565b60006041825114610ed7576040517f08c379a0000000000000000000000000000000000000000000000000000000008152600401610ece90611f05565b60405180910390fd5b6000806000610ee585610fcc565b809450819550829350505050610efd8682858561101e565b935050505092915050565b60008060009054906101000a900473ffffffffffffffffffffffffffffffffffffffff169050816000806101000a81548173ffffffffffffffffffffffffffffffffffffffff021916908373ffffffffffffffffffffffffffffffffffffffff1602179055508173ffffffffffffffffffffffffffffffffffffffff168173ffffffffffffffffffffffffffffffffffffffff167f8be0079c531659141344cd1fd0a4f28419497f9722a3daafe3b4186f6b6457e060405160405180910390a35050565b60008060006041845114610fdf57600080fd5b60008060006020870151925060408701519150606087015160001a9050601b816110099190611f32565b90508083839550955095505050509193909250565b60007f7fffffffffffffffffffffffffffffff5d576e7357a4501ddfe92f46681b20a08260001c1115611086576040517f08c379a000000000000000000000000000000000000000000000000000000000815260040161107d90611fb5565b60405180910390fd5b601b8460ff16148061109b5750601c8460ff16145b6110da576040517f08c379a00000000000000000000000000000000000000000000000000000000081526004016110d190612021565b60405180910390fd5b600060016110e787611141565b868686604051600081526020016040526040516111079493929190612050565b6020604051602081039080840390855afa158015611129573d6000803e3d6000fd5b50505060206040510351905080915050949350505050565b6000806040518060400160405280601c81526020017f19457468657265756d205369676e6564204d6573736167653a0a3332000000008152509050808360405160200161118f9291906120f2565b60405160208183030381529060405280519060200120915050919050565b8280546111b990611bb3565b90600052602060002090601f0160209004810192826111db5760008555611222565b82601f106111f457805160ff1916838001178555611222565b82800160010185558215611222579182015b82811115611221578251825591602001919060010190611206565b5b50905061122f9190611233565b5090565b5b8082111561124c576000816000905550600101611234565b5090565b6000604051905090565b600080fd5b600080fd5b600073ffffffffffffffffffffffffffffffffffffffff82169050919050565b600061128f82611264565b9050919050565b61129f81611284565b81146112aa57600080fd5b50565b6000813590506112bc81611296565b92915050565b600080fd5b600080fd5b6000601f19601f8301169050919050565b7f4e487b7100000000000000000000000000000000000000000000000000000000600052604160045260246000fd5b611315826112cc565b810181811067ffffffffffffffff82111715611334576113336112dd565b5b80604052505050565b6000611347611250565b9050611353828261130c565b919050565b600067ffffffffffffffff821115611373576113726112dd565b5b61137c826112cc565b9050602081019050919050565b82818337600083830152505050565b60006113ab6113a684611358565b61133d565b9050828152602081018484840111156113c7576113c66112c7565b5b6113d2848285611389565b509392505050565b600082601f8301126113ef576113ee6112c2565b5b81356113ff848260208601611398565b91505092915050565b6000806040838503121561141f5761141e61125a565b5b600061142d858286016112ad565b925050602083013567ffffffffffffffff81111561144e5761144d61125f565b5b61145a858286016113da565b9150509250929050565b6000819050919050565b61147781611464565b82525050565b6000602082019050611492600083018461146e565b92915050565b6000819050919050565b6114ab81611498565b82525050565b60006020820190506114c660008301846114a2565b92915050565b600067ffffffffffffffff8211156114e7576114e66112dd565b5b6114f0826112cc565b9050602081019050919050565b600061151061150b846114cc565b61133d565b90508281526020810184848401111561152c5761152b6112c7565b5b611537848285611389565b509392505050565b600082601f830112611554576115536112c2565b5b81356115648482602086016114fd565b91505092915050565b6000806000606084860312156115865761158561125a565b5b6000611594868287016112ad565b935050602084013567ffffffffffffffff8111156115b5576115b461125f565b5b6115c18682870161153f565b925050604084013567ffffffffffffffff8111156115e2576115e161125f565b5b6115ee868287016113da565b9150509250925092565b61160181611284565b82525050565b600060208201905061161c60008301846115f8565b92915050565b61162b81611498565b811461163657600080fd5b50565b60008135905061164881611622565b92915050565b600080600080608085870312156116685761166761125a565b5b600085013567ffffffffffffffff8111156116865761168561125f565b5b611692878288016113da565b94505060206116a387828801611639565b935050604085013567ffffffffffffffff8111156116c4576116c361125f565b5b6116d0878288016113da565b925050606085013567ffffffffffffffff8111156116f1576116f061125f565b5b6116fd878288016113da565b91505092959194509250565b600061171482611264565b9050919050565b61172481611709565b82525050565b600060208201905061173f600083018461171b565b92915050565b60006020828403121561175b5761175a61125a565b5b600061176984828501611639565b91505092915050565b600081519050919050565b600082825260208201905092915050565b60005b838110156117ac578082015181840152602081019050611791565b838111156117bb576000848401525b50505050565b60006117cc82611772565b6117d6818561177d565b93506117e681856020860161178e565b6117ef816112cc565b840191505092915050565b7f4e487b7100000000000000000000000000000000000000000000000000000000600052602160045260246000fd5b6004811061183a576118396117fa565b5b50565b600081905061184b82611829565b919050565b600061185b8261183d565b9050919050565b61186b81611850565b82525050565b600060e082019050818103600083015261188b818a6117c1565b905061189a60208301896115f8565b6118a760408301886114a2565b6118b460608301876114a2565b81810360808301526118c681866117c1565b905081810360a08301526118da81856117c1565b90506118e960c0830184611862565b98975050505050505050565b60008060006060848603121561190e5761190d61125a565b5b600061191c86828701611639565b935050602084013567ffffffffffffffff81111561193d5761193c61125f565b5b6119498682870161153f565b925050604084013567ffffffffffffffff81111561196a5761196961125f565b5b611976868287016113da565b9150509250925092565b6000602082840312156119965761199561125a565b5b60006119a4848285016112ad565b91505092915050565b60008160601b9050919050565b60006119c5826119ad565b9050919050565b60006119d7826119ba565b9050919050565b6119ef6119ea82611284565b6119cc565b82525050565b6000611a00826119ba565b9050919050565b611a18611a1382611709565b6119f5565b82525050565b600081905092915050565b6000611a3482611772565b611a3e8185611a1e565b9350611a4e81856020860161178e565b80840191505092915050565b6000611a6682866119de565b601482019150611a768285611a07565b601482019150611a868284611a29565b9150819050949350505050565b7f4f776e61626c653a2063616c6c6572206973206e6f7420746865206f776e6572600082015250565b6000611ac960208361177d565b9150611ad482611a93565b602082019050919050565b60006020820190508181036000830152611af881611abc565b9050919050565b7f4e487b7100000000000000000000000000000000000000000000000000000000600052601160045260246000fd5b6000611b3982611498565b9150611b4483611498565b9250827fffffffffffffffffffffffffffffffffffffffffffffffffffffffffffffffff03821115611b7957611b78611aff565b5b828201905092915050565b7f4e487b7100000000000000000000000000000000000000000000000000000000600052602260045260246000fd5b60006002820490506001821680611bcb57607f821691505b60208210811415611bdf57611bde611b84565b5b50919050565b7f74686520616d6f756e742073686f756c6420626520656e6f75676820746f206360008201527f6f7665722074686520726567697374726174696f6e0000000000000000000000602082015250565b6000611c4160358361177d565b9150611c4c82611be5565b604082019050919050565b60006020820190508181036000830152611c7081611c34565b9050919050565b7f5265656e7472616e637947756172643a207265656e7472616e742063616c6c00600082015250565b6000611cad601f8361177d565b9150611cb882611c77565b602082019050919050565b60006020820190508181036000830152611cdc81611ca0565b9050919050565b7f5265706c61792061747461636b2064657465637465643a20746865206e6f6e6360008201527f652073686f756c6420626520756e757365640000000000000000000000000000602082015250565b6000611d3f60328361177d565b9150611d4a82611ce3565b604082019050919050565b60006020820190508181036000830152611d6e81611d32565b9050919050565b600081905092915050565b50565b6000611d90600083611d75565b9150611d9b82611d80565b600082019050919050565b6000611db182611d83565b9150819050919050565b7f5472616e73666572206661696c65642e00000000000000000000000000000000600082015250565b6000611df160108361177d565b9150611dfc82611dbb565b602082019050919050565b60006020820190508181036000830152611e2081611de4565b9050919050565b7f4f776e61626c653a206e6577206f776e657220697320746865207a65726f206160008201527f6464726573730000000000000000000000000000000000000000000000000000602082015250565b6000611e8360268361177d565b9150611e8e82611e27565b604082019050919050565b60006020820190508181036000830152611eb281611e76565b9050919050565b7f696e76616c6964207369676e6174757265206c656e6774680000000000000000600082015250565b6000611eef60188361177d565b9150611efa82611eb9565b602082019050919050565b60006020820190508181036000830152611f1e81611ee2565b9050919050565b600060ff82169050919050565b6000611f3d82611f25565b9150611f4883611f25565b92508260ff03821115611f5e57611f5d611aff565b5b828201905092915050565b7f696e76616c6964207369676e6174757265202773272076616c75650000000000600082015250565b6000611f9f601b8361177d565b9150611faa82611f69565b602082019050919050565b60006020820190508181036000830152611fce81611f92565b9050919050565b7f696e76616c6964207369676e6174757265202776272076616c75650000000000600082015250565b600061200b601b8361177d565b915061201682611fd5565b602082019050919050565b6000602082019050818103600083015261203a81611ffe565b9050919050565b61204a81611f25565b82525050565b6000608082019050612065600083018761146e565b6120726020830186612041565b61207f604083018561146e565b61208c606083018461146e565b95945050505050565b600081519050919050565b60006120ab82612095565b6120b58185611d75565b93506120c581856020860161178e565b80840191505092915050565b6000819050919050565b6120ec6120e782611464565b6120d1565b82525050565b60006120fe82856120a0565b915061210a82846120db565b602082019150819050939250505056fea26469706673582212203653490824548fbfa0da02b683e300771fddd0bd1c1e6e652b8163a499fc591264736f6c634300080b0033",
  "immutableReferences": {},
  "source": "// SPDX-License-Identifier: MIT\npragma solidity >=0.8.0 <0.9.0;\n\nimport \"@openzeppelin/contracts/access/Ownable.sol\";\nimport \"@openzeppelin/contracts/security/ReentrancyGuard.sol\";\n\n/// @title A land registry smart contract\n/// @author Sandra Abago\n/// @notice This contract can be used to register a land title on the blockchain\n/// @custom:experimental This is an experimental contract.\ncontract LandTitle is Ownable, ReentrancyGuard {\n    // Variables\n\n    // Land Registry Address\n    address payable public registryAddress;\n\n    // Land Owner's Address\n    address payable public titleOwner;\n\n    // Land Title Registry Fee\n    uint256 public registryFee;\n\n    // Land Title Transfer Fee\n    uint256 public transferFee;\n\n    // Nonce to prevent replay attacks\n    /**\n     * A replay attack is when a signature is used again (replayed)\n     * to claim authorization for a second action. Just as in Ethereum\n     * transactions themselves, messages typically include a nonce to\n     * protect against replay attacks. The smart contract checks\n     * that no nonce is reused.\n     */\n    uint256 public nonce;\n    // Rentrancy attack guard\n    bool locked = false;\n    mapping(uint256 => bool) usedNonces;\n\n    /** Enums are useful to model choice and keep track of state */\n    /** The order in which the enum is declared matters!! */\n    /** The first item is the default of the State enum, in this case */\n    enum State {\n        ToBeRegistered,\n        Registered,\n        ToBeTransfered,\n        Transfered\n    }\n\n    /** Struct types are used to represent a record */\n    struct Title {\n        string ID;\n        address payable currOwner;\n        uint256 size;\n        string location;\n        string image;\n        State state;\n        uint256 nonce;\n    }\n    mapping(uint256 => Title) titles;\n\n    /*\n     * Events\n     */\n    event LogToBeRegistered(uint256 nonce);\n    event LogRegistered(uint256 nonce);\n    // Not used\n    event LogToBeTransfered(uint256 nonce);\n    // Not used\n    event LogTransfered(uint256 nonce);\n\n    /*\n     * Modifiers\n     */\n    /// @notice checks that the amount sent by the title owner is enough for the registration\n    modifier paidEnough(uint256 _price) {\n        require(\n            msg.value >= _price,\n            \"the amount should be enough to cover the registration\"\n        );\n        _;\n    }\n\n    /// @notice checks that the info for the title has been added to the blockchain before registration\n    modifier toBeRegistered(uint256 _nonce) {\n        require(\n            (titles[_nonce].currOwner != address(0) &&\n                titles[_nonce].state == State.ToBeRegistered),\n            \"The title should be on added in order to be registered\"\n        );\n        _;\n    }\n\n    /// @notice checks that the title is registered.\n    modifier registered(uint256 _nonce) {\n        require(\n            titles[_nonce].state == State.Registered,\n            \"The title has been registered\"\n        );\n        _;\n    }\n\n    // Not used\n    modifier toBeTransfered(uint256 _nonce) {\n        require(\n            titles[_nonce].state == State.ToBeTransfered,\n            \"The title is ready to be transfered\"\n        );\n        _;\n    }\n\n    // Not used\n    modifier transfered(uint256 _nonce) {\n        require(\n            titles[_nonce].state == State.Transfered,\n            \"The title has been transfered\"\n        );\n        _;\n    }\n\n    constructor(address _registryAddress) {\n        // Set the title owner as the transaction sender.\n        titleOwner = payable(msg.sender);\n        // Set the address for the \"land registy office\".\n        registryAddress = payable(_registryAddress);\n        // Set the registry fee, as determined by the \"land registry office\".\n        registryFee = (1*(10**18));\n        // Set the transfer fee, as determined by the \"land registry office\".\n        transferFee = 1;\n        // Initialize the nonce to 0.\n        nonce = 0;\n    }\n\n    /// @notice adds a land title with a given code(ID), and emits a LogToBeRegistered event.\n    /// @param _ID is the special code assigned to the digital land title.\n    /// @param _size is the size of the land on the title.\n    /// @param _location is where the land on the title is located.\n    /// @param _image is an arial image of the land on the title.\n    function addTitle(\n        string memory _ID,\n        uint256 _size,\n        string memory _location,\n        string memory _image\n    ) public onlyOwner {\n        titles[nonce] = Title(\n            _ID,\n            titleOwner,\n            _size,\n            _location,\n            _image,\n            State.ToBeRegistered,\n            nonce\n        );\n        emit LogToBeRegistered(nonce);\n        nonce = nonce + 1;\n        // return true;?\n    }\n\n    /// @notice getter function that returns the land title associated with the _nonce.\n    /// @param _nonce is the counter for the added land title being referenced.\n    function fetchTitle(uint256 _nonce)\n        public\n        view\n        returns (\n            string memory ID,\n            address currOwner,\n            uint256 titleNonce,\n            uint256 size,\n            string memory location,\n            string memory image,\n            State state\n        )\n    {\n        ID = titles[_nonce].ID;\n        currOwner = titles[_nonce].currOwner;\n        size = titles[_nonce].size;\n        location = titles[_nonce].location;\n        image = titles[_nonce].image;\n        state = titles[_nonce].state;\n        titleNonce = _nonce;\n\n        return (ID, currOwner, titleNonce, size, location, image, state);\n    }\n\n    /**\n     * ECDSA HELPER FUNCTIONS\n     * In general, ECDSA signatures consist of two parameters, r and s.\n     * Signatures in Ethereum include a third parameter, v, which provides\n     * additional information that can be used to recover which accounts\n     * private key was used to sign the message. This same mechanism is\n     * how Ethereum determines which account sent a given transaction.\n     * Solidity provides a built-in function ecrecover that accepts a\n     * message along with the r, s, and v parameters and returns\n     * the address that was used to sign the message.\n     *\n     * Splitting the signature to obtain these params is, therefore, necessary.\n     */\n\n    /// @notice splits the signature so that the signer can be recovered.\n    /// @param sig is the signature of the signed land title.\n    /// @return v r s params from the split signature.\n    function splitSignature(bytes memory sig)\n        private\n        pure\n        returns (\n            uint8,\n            bytes32,\n            bytes32\n        )\n    {\n        require(sig.length == 65);\n\n        bytes32 r;\n        bytes32 s;\n        uint8 v;\n        /**\n         * r and s are 32 bytes each and together make up\n         * the first 64 bytes of the signature.\n         * v is the 65th byte, which can be found at byte\n         * offset 96 (32 bytes for the length, 64 bytes for r and s).\n         * The mload opcode loads 32 bytes at a time, so the\n         * function then needs to extract just the first byte\n         * of the word that was read. This is what byte(0, ...) does.\n         */\n        assembly {\n            // first 32 bytes, after the length prefix\n            r := mload(add(sig, 32))\n            // second 32 bytes\n            s := mload(add(sig, 64))\n            // final byte (first byte of the next 32 bytes)\n            v := byte(0, mload(add(sig, 96))) \n        }\n        v += 27;\n        return (v , r, s);\n    }\n\n    /**\n     * In addition to the r, s, and v parameters from the signature,\n     * recovering the message signer requires knowledge of the message\n     * that was signed. The message hash needs to be recomputed from\n     * the sent parameters along with the known prefix.\n     *\n     * It may seem tempting at first to just have the caller pass in\n     * the message that was signed, but that would only prove that\n     * some message was signed by the owner. The smart contract needs\n     * to know exactly what parameters were signed, and so it must\n     * recreate the message from the parameters and use that for\n     * signature verification.\n     */\n\n    /// @notice hashes the info to be signed with the registry address.\n    /// @param from the address of the signer.\n    /// @param _ID the special code on the digital land title.\n    /// @return a hashed concatenation of the land title ID (entered by the user),\n    //  the user's address(from), and the registry address(to).\n    function hashMessage(\n        address from,\n        string memory _ID\n    ) public view returns (bytes32) {\n        bytes32 message = keccak256(abi.encodePacked(from, registryAddress, _ID));\n        return message;\n    }\n\n    /// @notice prefixes the hashed message to mimic the behavior of eth_sign.\n    /// @param hashedMessage the hashed message to be prefixed and signed.\n    /// @return a prefixed hash (of hashed message).\n    function prefixMessage(bytes32 hashedMessage) internal pure returns (bytes32) {\n        bytes memory prefix = \"\\x19Ethereum Signed Message:\\n32\";\n        return keccak256(abi.encodePacked(prefix,  hashedMessage));\n    }\n\n    /*****\n     * INTERNAL ECDSA SIGNATURE HELPERS\n     *****/\n    /// @notice recovers the address that signed any message.\n    /// @param hashedMessage the info that was signed.\n    /// @param v the 65th byte of any split signature.\n    /// @param r the first 332 bytes of any split signature.\n    /// @param s the second 32 bytes of any split signature.\n    /// @return the address of the signer.\n    function getSigner(\n        bytes32 hashedMessage,\n        uint8 v,\n        bytes32 r,\n        bytes32 s\n    ) internal pure returns (address) {\n        require(\n            uint256(s) <=\n                0x7FFFFFFFFFFFFFFFFFFFFFFFFFFFFFFF5D576E7357A4501DDFE92F46681B20A0,\n            \"invalid signature 's' value\"\n        );\n        require(v == 27 || v == 28, \"invalid signature 'v' value\");\n        address signer = ecrecover(prefixMessage(hashedMessage), v, r, s);\n\n        return signer;\n    }\n\n    /// @notice recovers the address that signed the land title.\n    /// @param message the info that was signed.\n    ///  @param _sig the signature of the land title.\n    /// @return the address of the signer of the land title after splitting the signature.\n    function recoverAddress(bytes32 message,     \n    bytes memory _sig \n        )\n        internal\n        pure\n        returns (address)\n    {\n        if (_sig.length != 65) {\n            revert(\"invalid signature length\");\n        }\n        bytes32 r;\n        bytes32 s;\n        uint8 v;\n\n        (v, r, s) = splitSignature(_sig);\n\n        return getSigner(message, v, r, s);\n    }\n\n    /*****\n     * PROCESS THE SIGNATURE\n     *****/\n    // Need to test the above internal functions. processSignature comes in handy.\n    /// @notice processes the signature to check for the signer.\n    /// @param userFrom the owner of the land title.\n    /// @param _signature the signature of the land title.\n    /// @param _ID the special code on the added and signed land title.\n    /// @return the recovered address that signed the land title.\n    function processSignature(\n        address userFrom,\n        bytes memory _signature,\n        string memory _ID\n    ) public view onlyOwner returns (address) {\n        bytes32 message = hashMessage(userFrom, _ID);\n        address recovered = recoverAddress(message, _signature);\n        return recovered;\n    }\n\n    /// @notice checks that the nonce affiliated with the added land title is unused, checks the signer, and registers the land title.\n    /// @param _nonce the counter of the associated land title.\n    /// @param _sig the signature of the land title.\n    function registerTitle(uint256 _nonce, bytes memory _sig, string memory _ID)\n        public\n        payable\n        paidEnough(registryFee)\n        onlyOwner\n        nonReentrant\n    {\n        // avoid replay attacks\n        require((!usedNonces[_nonce]), \"Replay attack detected: the nonce should be unused\");\n        usedNonces[_nonce] = true;\n        // Check the signature.\n        // Note: Would like to check the signature here, but web3.eth.sign on the frontend\n        // keeps returning a different signature from the tests, even though the hash and account\n        // that is signing are the same. Sometimes it works, and other times, it does not! Error \n        // manifests as wrong v value, which usually requires re-migrating\n        // address signer = processSignature(\n        //     titles[_nonce].currOwner,\n        //     _sig,\n        //     _ID\n        // );\n        // require(signer == titleOwner, \"the owner must sign the title\");\n        // If signature is that of the owner, register the land title.\n        // Reentrancy guard\n        // require(!locked, \"Reentrant call detected!\");\n        // locked = true;\n        (bool success, ) = registryAddress.call{value: msg.value}(\"\");\n        // locked = false;\n        require(success, \"Transfer failed.\");\n        titles[_nonce].state = State.Registered;\n        emit LogRegistered(_nonce);\n    }\n\n    /// @notice Destroy contract and reclaim leftover funds.\n    function kill() public onlyOwner {\n        selfdestruct(payable(msg.sender));\n    }\n}\n",
  "sourcePath": "/Users/sandraabago/Desktop/Sandy/Crypto/ConsenSys/blockchain-developer-bootcamp-final-project/src/contracts/LandTitle.sol",
  "compiler": {
    "name": "solc",
    "version": "0.8.11+commit.d7f03943.Emscripten.clang"
  },
  "schemaVersion": "3.4.3",
  "updatedAt": "2022-01-15T15:35:22.089Z",
  "networkType": "ethereum",
  "devdoc": {
    "author": "Sandra Abago",
    "custom:experimental": "This is an experimental contract.",
    "kind": "dev",
    "methods": {
      "addTitle(string,uint256,string,string)": {
        "params": {
          "_ID": "is the special code assigned to the digital land title.",
          "_image": "is an arial image of the land on the title.",
          "_location": "is where the land on the title is located.",
          "_size": "is the size of the land on the title."
        }
      },
      "fetchTitle(uint256)": {
        "params": {
          "_nonce": "is the counter for the added land title being referenced."
        }
      },
      "hashMessage(address,string)": {
        "params": {
          "_ID": "the special code on the digital land title.",
          "from": "the address of the signer."
        },
        "returns": {
          "_0": "a hashed concatenation of the land title ID (entered by the user),"
        }
      },
      "owner()": {
        "details": "Returns the address of the current owner."
      },
      "processSignature(address,bytes,string)": {
        "params": {
          "_ID": "the special code on the added and signed land title.",
          "_signature": "the signature of the land title.",
          "userFrom": "the owner of the land title."
        },
        "returns": {
          "_0": "the recovered address that signed the land title."
        }
      },
      "registerTitle(uint256,bytes,string)": {
        "params": {
          "_nonce": "the counter of the associated land title.",
          "_sig": "the signature of the land title."
        }
      },
      "renounceOwnership()": {
        "details": "Leaves the contract without owner. It will not be possible to call `onlyOwner` functions anymore. Can only be called by the current owner. NOTE: Renouncing ownership will leave the contract without an owner, thereby removing any functionality that is only available to the owner."
      },
      "transferOwnership(address)": {
        "details": "Transfers ownership of the contract to a new account (`newOwner`). Can only be called by the current owner."
      }
    },
    "title": "A land registry smart contract",
    "version": 1
  },
  "userdoc": {
    "kind": "user",
    "methods": {
      "addTitle(string,uint256,string,string)": {
        "notice": "adds a land title with a given code(ID), and emits a LogToBeRegistered event."
      },
      "fetchTitle(uint256)": {
        "notice": "getter function that returns the land title associated with the _nonce."
      },
      "hashMessage(address,string)": {
        "notice": "hashes the info to be signed with the registry address."
      },
      "kill()": {
        "notice": "Destroy contract and reclaim leftover funds."
      },
      "nonce()": {
        "notice": "A replay attack is when a signature is used again (replayed) to claim authorization for a second action. Just as in Ethereum transactions themselves, messages typically include a nonce to protect against replay attacks. The smart contract checks that no nonce is reused."
      },
      "processSignature(address,bytes,string)": {
        "notice": "processes the signature to check for the signer."
      },
      "registerTitle(uint256,bytes,string)": {
        "notice": "checks that the nonce affiliated with the added land title is unused, checks the signer, and registers the land title."
      }
    },
    "notice": "This contract can be used to register a land title on the blockchain",
    "version": 1
  }
}